{
  "_format": "hh-sol-artifact-1",
  "contractName": "RatherGovernor",
  "sourceName": "contracts/RatherGovernor.sol",
  "abi": [
    {
      "inputs": [
        {
          "internalType": "address",
          "name": "_ratherToken",
          "type": "address"
        }
      ],
      "stateMutability": "nonpayable",
      "type": "constructor"
    },
    {
      "anonymous": false,
      "inputs": [
        {
          "indexed": true,
          "internalType": "address",
          "name": "previousOwner",
          "type": "address"
        },
        {
          "indexed": true,
          "internalType": "address",
          "name": "newOwner",
          "type": "address"
        }
      ],
      "name": "OwnershipTransferred",
      "type": "event"
    },
    {
      "anonymous": false,
      "inputs": [
        {
          "indexed": true,
          "internalType": "bytes32",
          "name": "proposalHash",
          "type": "bytes32"
        },
        {
          "indexed": true,
          "internalType": "address",
          "name": "canceler",
          "type": "address"
        }
      ],
      "name": "ProposalCanceled",
      "type": "event"
    },
    {
      "anonymous": false,
      "inputs": [
        {
          "indexed": true,
          "internalType": "bytes32",
          "name": "proposalHash",
          "type": "bytes32"
        },
        {
          "indexed": true,
          "internalType": "address",
          "name": "closer",
          "type": "address"
        }
      ],
      "name": "ProposalClosed",
      "type": "event"
    },
    {
      "anonymous": false,
      "inputs": [
        {
          "indexed": true,
          "internalType": "bytes32",
          "name": "proposalHash",
          "type": "bytes32"
        },
        {
          "indexed": false,
          "internalType": "string",
          "name": "title",
          "type": "string"
        },
        {
          "indexed": false,
          "internalType": "string",
          "name": "description",
          "type": "string"
        },
        {
          "indexed": false,
          "internalType": "uint256",
          "name": "proposalDeadline",
          "type": "uint256"
        },
        {
          "indexed": false,
          "internalType": "uint256",
          "name": "minimumVotes",
          "type": "uint256"
        },
        {
          "indexed": false,
          "internalType": "string",
          "name": "optionA",
          "type": "string"
        },
        {
          "indexed": false,
          "internalType": "string",
          "name": "optionB",
          "type": "string"
        }
      ],
      "name": "ProposalCreated",
      "type": "event"
    },
    {
      "anonymous": false,
      "inputs": [
        {
          "indexed": true,
          "internalType": "bytes32",
          "name": "proposalHash",
          "type": "bytes32"
        },
        {
          "indexed": false,
          "internalType": "uint256",
          "name": "option",
          "type": "uint256"
        },
        {
          "indexed": false,
          "internalType": "uint256",
          "name": "votes",
          "type": "uint256"
        },
        {
          "indexed": true,
          "internalType": "address",
          "name": "executor",
          "type": "address"
        }
      ],
      "name": "ProposalExecuted",
      "type": "event"
    },
    {
      "anonymous": false,
      "inputs": [
        {
          "indexed": true,
          "internalType": "bytes32",
          "name": "proposalHash",
          "type": "bytes32"
        },
        {
          "indexed": true,
          "internalType": "address",
          "name": "voter",
          "type": "address"
        },
        {
          "indexed": false,
          "internalType": "uint256",
          "name": "option",
          "type": "uint256"
        }
      ],
      "name": "Voted",
      "type": "event"
    },
    {
      "inputs": [
        {
          "internalType": "bytes32",
          "name": "",
          "type": "bytes32"
        }
      ],
      "name": "Proposals",
      "outputs": [
        {
          "internalType": "uint256",
          "name": "creation",
          "type": "uint256"
        },
        {
          "internalType": "string",
          "name": "title",
          "type": "string"
        },
        {
          "internalType": "string",
          "name": "description",
          "type": "string"
        },
        {
          "internalType": "uint256",
          "name": "deadline",
          "type": "uint256"
        },
        {
          "internalType": "uint256",
          "name": "minimumVotes",
          "type": "uint256"
        },
        {
          "internalType": "string",
          "name": "optionA",
          "type": "string"
        },
        {
          "internalType": "string",
          "name": "optionB",
          "type": "string"
        },
        {
          "internalType": "uint256",
          "name": "optionAVotes",
          "type": "uint256"
        },
        {
          "internalType": "uint256",
          "name": "optionBVotes",
          "type": "uint256"
        },
        {
          "internalType": "bool",
          "name": "executed",
          "type": "bool"
        },
        {
          "internalType": "bool",
          "name": "canceled",
          "type": "bool"
        },
        {
          "internalType": "bool",
          "name": "closed",
          "type": "bool"
        }
      ],
      "stateMutability": "view",
      "type": "function"
    },
    {
      "inputs": [
        {
          "internalType": "bytes32",
          "name": "",
          "type": "bytes32"
        },
        {
          "internalType": "address",
          "name": "",
          "type": "address"
        }
      ],
      "name": "Voter",
      "outputs": [
        {
          "internalType": "uint256",
          "name": "",
          "type": "uint256"
        }
      ],
      "stateMutability": "view",
      "type": "function"
    },
    {
      "inputs": [
        {
          "internalType": "bytes32",
          "name": "_proposalHash",
          "type": "bytes32"
        }
      ],
      "name": "cancel",
      "outputs": [],
      "stateMutability": "nonpayable",
      "type": "function"
    },
    {
      "inputs": [
        {
          "internalType": "bytes32",
          "name": "_proposalHash",
          "type": "bytes32"
        }
      ],
      "name": "close",
      "outputs": [],
      "stateMutability": "nonpayable",
      "type": "function"
    },
    {
      "inputs": [
        {
          "internalType": "string",
          "name": "_title",
          "type": "string"
        },
        {
          "internalType": "string",
          "name": "_description",
          "type": "string"
        },
        {
          "internalType": "uint256",
          "name": "_deadline",
          "type": "uint256"
        },
        {
          "internalType": "uint256",
          "name": "_minimumVotes",
          "type": "uint256"
        },
        {
          "internalType": "string",
          "name": "_optionA",
          "type": "string"
        },
        {
          "internalType": "string",
          "name": "_optionB",
          "type": "string"
        }
      ],
      "name": "create",
      "outputs": [],
      "stateMutability": "nonpayable",
      "type": "function"
    },
    {
      "inputs": [],
      "name": "delayTime",
      "outputs": [
        {
          "internalType": "uint256",
          "name": "",
          "type": "uint256"
        }
      ],
      "stateMutability": "view",
      "type": "function"
    },
    {
      "inputs": [
        {
          "internalType": "bytes32",
          "name": "_proposalHash",
          "type": "bytes32"
        }
      ],
      "name": "execute",
      "outputs": [],
      "stateMutability": "nonpayable",
      "type": "function"
    },
    {
      "inputs": [],
      "name": "executionTime",
      "outputs": [
        {
          "internalType": "uint256",
          "name": "",
          "type": "uint256"
        }
      ],
      "stateMutability": "view",
      "type": "function"
    },
    {
      "inputs": [
        {
          "internalType": "bytes32",
          "name": "_proposalHash",
          "type": "bytes32"
        }
      ],
      "name": "getProposal",
      "outputs": [
        {
          "components": [
            {
              "internalType": "uint256",
              "name": "creation",
              "type": "uint256"
            },
            {
              "internalType": "string",
              "name": "title",
              "type": "string"
            },
            {
              "internalType": "string",
              "name": "description",
              "type": "string"
            },
            {
              "internalType": "uint256",
              "name": "deadline",
              "type": "uint256"
            },
            {
              "internalType": "uint256",
              "name": "minimumVotes",
              "type": "uint256"
            },
            {
              "internalType": "string",
              "name": "optionA",
              "type": "string"
            },
            {
              "internalType": "string",
              "name": "optionB",
              "type": "string"
            },
            {
              "internalType": "uint256",
              "name": "optionAVotes",
              "type": "uint256"
            },
            {
              "internalType": "uint256",
              "name": "optionBVotes",
              "type": "uint256"
            },
            {
              "internalType": "bool",
              "name": "executed",
              "type": "bool"
            },
            {
              "internalType": "bool",
              "name": "canceled",
              "type": "bool"
            },
            {
              "internalType": "bool",
              "name": "closed",
              "type": "bool"
            }
          ],
          "internalType": "struct RatherGovernor.Proposal",
          "name": "",
          "type": "tuple"
        }
      ],
      "stateMutability": "view",
      "type": "function"
    },
    {
      "inputs": [
        {
          "internalType": "bytes32",
          "name": "_proposalHash",
          "type": "bytes32"
        }
      ],
      "name": "getVotes",
      "outputs": [
        {
          "internalType": "uint256",
          "name": "",
          "type": "uint256"
        },
        {
          "internalType": "uint256",
          "name": "",
          "type": "uint256"
        }
      ],
      "stateMutability": "view",
      "type": "function"
    },
    {
      "inputs": [],
      "name": "minHoldToPropose",
      "outputs": [
        {
          "internalType": "uint256",
          "name": "",
          "type": "uint256"
        }
      ],
      "stateMutability": "view",
      "type": "function"
    },
    {
      "inputs": [],
      "name": "owner",
      "outputs": [
        {
          "internalType": "address",
          "name": "",
          "type": "address"
        }
      ],
      "stateMutability": "view",
      "type": "function"
    },
    {
      "inputs": [],
      "name": "ratherToken",
      "outputs": [
        {
          "internalType": "contract IERC20",
          "name": "",
          "type": "address"
        }
      ],
      "stateMutability": "view",
      "type": "function"
    },
    {
      "inputs": [],
      "name": "renounceOwnership",
      "outputs": [],
      "stateMutability": "nonpayable",
      "type": "function"
    },
    {
      "inputs": [
        {
          "internalType": "address",
          "name": "newOwner",
          "type": "address"
        }
      ],
      "name": "transferOwnership",
      "outputs": [],
      "stateMutability": "nonpayable",
      "type": "function"
    },
    {
      "inputs": [
        {
          "internalType": "bytes32",
          "name": "_proposalHash",
          "type": "bytes32"
        },
        {
          "internalType": "uint256",
          "name": "_option",
          "type": "uint256"
        }
      ],
      "name": "vote",
      "outputs": [],
      "stateMutability": "nonpayable",
      "type": "function"
    },
    {
      "inputs": [],
      "name": "votingTime",
      "outputs": [
        {
          "internalType": "uint256",
          "name": "",
          "type": "uint256"
        }
      ],
      "stateMutability": "view",
      "type": "function"
    }
  ],
  "bytecode": "0x60806040523480156200001157600080fd5b50604051620021d9380380620021d98339810160408190526200003491620000cb565b6200003f336200007b565b600180546001600160a01b0319166001600160a01b0392909216919091179055610e10600481905560058190556006556103e8600755620000fd565b600080546001600160a01b038381166001600160a01b0319831681178455604051919092169283917f8be0079c531659141344cd1fd0a4f28419497f9722a3daafe3b4186f6b6457e09190a35050565b600060208284031215620000de57600080fd5b81516001600160a01b0381168114620000f657600080fd5b9392505050565b6120cc806200010d6000396000f3fe608060405234801561001057600080fd5b506004361061010a5760003560e01c80637e2eee53116100a2578063c9c3d42e11610071578063c9c3d42e14610269578063cc0678dc14610272578063e751f2711461027b578063f2fde38b1461028e578063f9fa339a146102a157600080fd5b80637e2eee53146102155780638da5cb5b1461021e5780639ef1204c14610243578063c4d252f51461025657600080fd5b806339c79e0c116100de57806339c79e0c1461019a578063430694cf146101ad5780634c051100146101cd578063715018a61461020d57600080fd5b80628116761461010f5780631a121ad2146101435780631cbe482d1461017c5780632c14397f14610185575b600080fd5b61012261011d3660046119c4565b6102b4565b60405161013a9c9b9a99989796959493929190611a2d565b60405180910390f35b61016e610151366004611aed565b600260209081526000928352604080842090915290825290205481565b60405190815260200161013a565b61016e60055481565b610198610193366004611bbc565b610538565b005b6101986101a83660046119c4565b6109cf565b6101c06101bb3660046119c4565b610c72565b60405161013a9190611c7b565b6101f86101db3660046119c4565b600090815260036020526040902060078101546008909101549091565b6040805192835260208301919091520161013a565b610198610faa565b61016e60045481565b6000546001600160a01b03165b6040516001600160a01b03909116815260200161013a565b610198610251366004611d6c565b610fbe565b6101986102643660046119c4565b611338565b61016e60065481565b61016e60075481565b6101986102893660046119c4565b61158b565b61019861029c366004611d8e565b6118a1565b60015461022b906001600160a01b031681565b600360205260009081526040902080546001820180549192916102d690611db0565b80601f016020809104026020016040519081016040528092919081815260200182805461030290611db0565b801561034f5780601f106103245761010080835404028352916020019161034f565b820191906000526020600020905b81548152906001019060200180831161033257829003601f168201915b50505050509080600201805461036490611db0565b80601f016020809104026020016040519081016040528092919081815260200182805461039090611db0565b80156103dd5780601f106103b2576101008083540402835291602001916103dd565b820191906000526020600020905b8154815290600101906020018083116103c057829003601f168201915b5050505050908060030154908060040154908060050180546103fe90611db0565b80601f016020809104026020016040519081016040528092919081815260200182805461042a90611db0565b80156104775780601f1061044c57610100808354040283529160200191610477565b820191906000526020600020905b81548152906001019060200180831161045a57829003601f168201915b50505050509080600601805461048c90611db0565b80601f01602080910402602001604051908101604052809291908181526020018280546104b890611db0565b80156105055780601f106104da57610100808354040283529160200191610505565b820191906000526020600020905b8154815290600101906020018083116104e857829003601f168201915b505050600784015460088501546009909501549394909390925060ff80821692506101008204811691620100009004168c565b60075461054d90670de0b6b3a7640000611e00565b6001546040516370a0823160e01b81523360048201526001600160a01b03909116906370a0823190602401602060405180830381865afa158015610595573d6000803e3d6000fd5b505050506040513d601f19601f820116820180604052508101906105b99190611e1d565b10156105e05760405162461bcd60e51b81526004016105d790611e36565b60405180910390fd5b856040516020016105f19190611e7e565b604051602081830303815290604052805190602001206000036106565760405162461bcd60e51b815260206004820152601960248201527f5469746c652073686f756c64206e6f7420626520656d7074790000000000000060448201526064016105d7565b846040516020016106679190611e7e565b604051602081830303815290604052805190602001206000036106cc5760405162461bcd60e51b815260206004820152601f60248201527f4465736372697074696f6e2073686f756c64206e6f7420626520656d7074790060448201526064016105d7565b816040516020016106dd9190611e7e565b604051602081830303815290604052805190602001206000036107425760405162461bcd60e51b815260206004820152601c60248201527f4f7074696f6e20412073686f756c64206e6f7420626520656d7074790000000060448201526064016105d7565b806040516020016107539190611e7e565b604051602081830303815290604052805190602001206000036107b85760405162461bcd60e51b815260206004820152601c60248201527f4f7074696f6e20422073686f756c64206e6f7420626520656d7074790000000060448201526064016105d7565b826000036108175760405162461bcd60e51b815260206004820152602660248201527f4d696e696d756d20766f7465732073686f756c6420626520677265617465722060448201526507468616e20360d41b60648201526084016105d7565b6000428787878787876040516020016108369796959493929190611e9a565b60408051601f198184030181528282528051602091820120610180840183524284528382018b81528484018b9052606085018a90526080850189905260a0850188905260c08501879052600060e08601819052610100860181905261012086018190526101408601819052610160860181905282815260039093529290912083518155915190935060018201906108cd9082611f5d565b50604082015160028201906108e29082611f5d565b50606082015160038201556080820151600482015560a0820151600582019061090b9082611f5d565b5060c082015160068201906109209082611f5d565b5060e08201516007820155610100808301516008830155610120830151600990920180546101408501516101609095015161ffff1990911693151561ff001916939093179315159091029290921762ff00001916620100009115159190910217905560405181907f20e3a08712111a060d4e92c556c5b488580d6582f66f891806f44485aa016c85906109be908a908a908a908a908a908a9061201d565b60405180910390a250505050505050565b6007546109e490670de0b6b3a7640000611e00565b6001546040516370a0823160e01b81523360048201526001600160a01b03909116906370a0823190602401602060405180830381865afa158015610a2c573d6000803e3d6000fd5b505050506040513d601f19601f82011682018060405250810190610a509190611e1d565b1015610a6e5760405162461bcd60e51b81526004016105d790611e36565b600081815260036020819052604090912001544211610acf5760405162461bcd60e51b815260206004820181905260248201527f50726f706f73616c206e6f7420726561647920746f20626520636c6f7365642e60448201526064016105d7565b6000818152600360205260409020600881015460079091015414610b5b5760405162461bcd60e51b815260206004820152603860248201527f50726f706f73616c207769746820646966666572656e7420616d6f756e74206f60448201527f6620766f7465732063616e277420626520636c6f7365642e000000000000000060648201526084016105d7565b60008181526003602052604090206009015462010000900460ff1615610bbe5760405162461bcd60e51b8152602060048201526018602482015277283937b837b9b0b61030b63932b0b23c9031b637b9b2b21760411b60448201526064016105d7565b600081815260036020526040902060090154610100900460ff1615610c255760405162461bcd60e51b815260206004820152601a60248201527f50726f706f73616c20616c72656164792063616e63656c65642e00000000000060448201526064016105d7565b600081815260036020526040808220600901805462ff000019166201000017905551339183917fa8257d3293ee9ac7b01bd27f87bdbf124c99dc5a0ec679c7e24ca1e786ffc2549190a350565b610cdc6040518061018001604052806000815260200160608152602001606081526020016000815260200160008152602001606081526020016060815260200160008152602001600081526020016000151581526020016000151581526020016000151581525090565b600360008381526020019081526020016000206040518061018001604052908160008201548152602001600182018054610d1590611db0565b80601f0160208091040260200160405190810160405280929190818152602001828054610d4190611db0565b8015610d8e5780601f10610d6357610100808354040283529160200191610d8e565b820191906000526020600020905b815481529060010190602001808311610d7157829003601f168201915b50505050508152602001600282018054610da790611db0565b80601f0160208091040260200160405190810160405280929190818152602001828054610dd390611db0565b8015610e205780601f10610df557610100808354040283529160200191610e20565b820191906000526020600020905b815481529060010190602001808311610e0357829003601f168201915b505050505081526020016003820154815260200160048201548152602001600582018054610e4d90611db0565b80601f0160208091040260200160405190810160405280929190818152602001828054610e7990611db0565b8015610ec65780601f10610e9b57610100808354040283529160200191610ec6565b820191906000526020600020905b815481529060010190602001808311610ea957829003601f168201915b50505050508152602001600682018054610edf90611db0565b80601f0160208091040260200160405190810160405280929190818152602001828054610f0b90611db0565b8015610f585780601f10610f2d57610100808354040283529160200191610f58565b820191906000526020600020905b815481529060010190602001808311610f3b57829003601f168201915b5050509183525050600782015460208201526008820154604082015260099091015460ff8082161515606084015261010082048116151560808401526201000090910416151560a09091015292915050565b610fb261191a565b610fbc6000611974565b565b6000828152600260209081526040808320338452909152902054156110315760405162461bcd60e51b815260206004820152602360248201527f596f7520616c726561647920766f74656420666f7220746869732070726f706f6044820152621cd85b60ea1b60648201526084016105d7565b60008281526003602052604090206004548154429161104f91612083565b1061109c5760405162461bcd60e51b815260206004820152601c60248201527f566f746174696f6e206973206e6f742072756e6e696e67207965742e0000000060448201526064016105d7565b42816003015460055460045484600001546110b79190612083565b6110c19190612083565b6110cb9190612083565b116111185760405162461bcd60e51b815260206004820152601a60248201527f566f746174696f6e20616c72656164792068617070656e65642e00000000000060448201526064016105d7565b6009810154610100900460ff16156111675760405162461bcd60e51b8152602060048201526012602482015271283937b837b9b0b61031b0b731b2b632b21760711b60448201526064016105d7565b600981015462010000900460ff16156111b55760405162461bcd60e51b815260206004820152601060248201526f283937b837b9b0b61031b637b9b2b21760811b60448201526064016105d7565b600981015460ff161561120a5760405162461bcd60e51b815260206004820152601a60248201527f50726f706f73616c20616c72656164792065786563757465642e00000000000060448201526064016105d7565b81600114806112195750816002145b6112655760405162461bcd60e51b815260206004820152601760248201527f4f7074696f6e2073686f756c642062652031206f72203200000000000000000060448201526064016105d7565b81600114611274576000611277565b60015b60ff1660036000858152602001908152602001600020600701600082825461129f9190612083565b9091555050600282146112b35760006112b6565b60015b60ff166003600085815260200190815260200160002060080160008282546112de9190612083565b9091555050600083815260026020908152604080832033808552908352928190208590555184815285917fe4abc5380fa6939d1dc23b5e90b3a8a0e328f0f1a82a5f42bfb795bf9c717505910160405180910390a3505050565b60075461134d90670de0b6b3a7640000611e00565b6001546040516370a0823160e01b81523360048201526001600160a01b03909116906370a0823190602401602060405180830381865afa158015611395573d6000803e3d6000fd5b505050506040513d601f19601f820116820180604052508101906113b99190611e1d565b10156113d75760405162461bcd60e51b81526004016105d790611e36565b6000818152600360208190526040909120015442116114445760405162461bcd60e51b815260206004820152602360248201527f50726f706f73616c206e6f7420726561647920666f722063616e63656c61746960448201526237b71760e91b60648201526084016105d7565b600081815260036020526040902060090154610100900460ff16156114ab5760405162461bcd60e51b815260206004820152601960248201527f50726f706f73616c20616c72656164792063616e63656c65640000000000000060448201526064016105d7565b60008181526003602052604090206004810154600882015460079092015490916114d491612083565b106115405760405162461bcd60e51b815260206004820152603660248201527f50726f706f73616c2077697468207468697320616d6f756e74206f6620766f7460448201527532b99031b0b713ba1031329031b0b731b2b63632b21760511b60648201526084016105d7565b600081815260036020526040808220600901805461ff00191661010017905551339183917f6408fabeb6e96b978a410b87cc3dda3b45cee81173f6a914971a65a0bd3034dc9190a350565b60008181526003602052604090206009810154610100900460ff16156115f35760405162461bcd60e51b815260206004820152601a60248201527f50726f706f73616c20616c72656164792063616e63656c65642e00000000000060448201526064016105d7565b600981015462010000900460ff16156116495760405162461bcd60e51b8152602060048201526018602482015277283937b837b9b0b61030b63932b0b23c9031b637b9b2b21760411b60448201526064016105d7565b600981015460ff161561169e5760405162461bcd60e51b815260206004820152601a60248201527f50726f706f73616c20616c72656164792065786563757465642e00000000000060448201526064016105d7565b600654600382015482544292916116b491612083565b6116be9190612083565b106117155760405162461bcd60e51b815260206004820152602160248201527f50726f706f73616c206e6f7420726561647920666f7220657865637574696f6e6044820152601760f91b60648201526084016105d7565b80600401548160080154826007015461172e9190612083565b101561178a5760405162461bcd60e51b815260206004820152602560248201527f4e6f7420656e6f75676820766f74657320746f20657865637574652070726f7060448201526437b9b0b61760d91b60648201526084016105d7565b80600801548160070154036117d45760405162461bcd60e51b815260206004820152601060248201526f2b37ba32b99030b9329032b8bab0b61760811b60448201526064016105d7565b60008281526003602052604081206008810154600790910154116117f95760026117fc565b60015b60ff16905060008160011461182257600084815260036020526040902060080154611835565b6000848152600360205260409020600701545b60008581526003602052604090819020600901805460ff1916600117905551909150339085907feff9eb7b9e681abff940524e1713c88227def87c10c915bf3c7da275c89e450e906118939086908690918252602082015260400190565b60405180910390a350505050565b6118a961191a565b6001600160a01b03811661190e5760405162461bcd60e51b815260206004820152602660248201527f4f776e61626c653a206e6577206f776e657220697320746865207a65726f206160448201526564647265737360d01b60648201526084016105d7565b61191781611974565b50565b6000546001600160a01b03163314610fbc5760405162461bcd60e51b815260206004820181905260248201527f4f776e61626c653a2063616c6c6572206973206e6f7420746865206f776e657260448201526064016105d7565b600080546001600160a01b038381166001600160a01b0319831681178455604051919092169283917f8be0079c531659141344cd1fd0a4f28419497f9722a3daafe3b4186f6b6457e09190a35050565b6000602082840312156119d657600080fd5b5035919050565b60005b838110156119f85781810151838201526020016119e0565b50506000910152565b60008151808452611a198160208601602086016119dd565b601f01601f19169290920160200192915050565b60006101808e8352806020840152611a478184018f611a01565b90508281036040840152611a5b818e611a01565b90508b60608401528a608084015282810360a0840152611a7b818b611a01565b905082810360c0840152611a8f818a611a01565b9150508660e083015285610100830152841515610120830152831515610140830152611ac061016083018415159052565b9d9c50505050505050505050505050565b80356001600160a01b0381168114611ae857600080fd5b919050565b60008060408385031215611b0057600080fd5b82359150611b1060208401611ad1565b90509250929050565b634e487b7160e01b600052604160045260246000fd5b600082601f830112611b4057600080fd5b813567ffffffffffffffff80821115611b5b57611b5b611b19565b604051601f8301601f19908116603f01168101908282118183101715611b8357611b83611b19565b81604052838152866020858801011115611b9c57600080fd5b836020870160208301376000602085830101528094505050505092915050565b60008060008060008060c08789031215611bd557600080fd5b863567ffffffffffffffff80821115611bed57600080fd5b611bf98a838b01611b2f565b97506020890135915080821115611c0f57600080fd5b611c1b8a838b01611b2f565b965060408901359550606089013594506080890135915080821115611c3f57600080fd5b611c4b8a838b01611b2f565b935060a0890135915080821115611c6157600080fd5b50611c6e89828a01611b2f565b9150509295509295509295565b602081528151602082015260006020830151610180806040850152611ca46101a0850183611a01565b91506040850151601f1980868503016060870152611cc28483611a01565b935060608701516080870152608087015160a087015260a08701519150808685030160c0870152611cf38483611a01565b935060c08701519150808685030160e087015250611d118382611a01565b60e087015161010087810191909152870151610120808801919091528701519093509050610140611d458187018315159052565b8601519050610160611d5a8682018315159052565b90950151151593019290925250919050565b60008060408385031215611d7f57600080fd5b50508035926020909101359150565b600060208284031215611da057600080fd5b611da982611ad1565b9392505050565b600181811c90821680611dc457607f821691505b602082108103611de457634e487b7160e01b600052602260045260246000fd5b50919050565b634e487b7160e01b600052601160045260246000fd5b8082028115828204841417611e1757611e17611dea565b92915050565b600060208284031215611e2f57600080fd5b5051919050565b60208082526028908201527f4e6f7420656e6f75676820746f6b656e7320746f20706572666f726d20746869604082015267399030b1ba34b7b760c11b606082015260800190565b60008251611e908184602087016119dd565b9190910192915050565b878152600060208851611eb281838601848d016119dd565b885190840190611ec781848401858d016119dd565b01818101889052604081018790528551611ee781606084018986016119dd565b8551910190611efc81606084018589016119dd565b016060019a9950505050505050505050565b601f821115611f5857600081815260208120601f850160051c81016020861015611f355750805b601f850160051c820191505b81811015611f5457828155600101611f41565b5050505b505050565b815167ffffffffffffffff811115611f7757611f77611b19565b611f8b81611f858454611db0565b84611f0e565b602080601f831160018114611fc05760008415611fa85750858301515b600019600386901b1c1916600185901b178555611f54565b600085815260208120601f198616915b82811015611fef57888601518255948401946001909101908401611fd0565b508582101561200d5787850151600019600388901b60f8161c191681555b5050505050600190811b01905550565b60c08152600061203060c0830189611a01565b82810360208401526120428189611a01565b905086604084015285606084015282810360808401526120628186611a01565b905082810360a08401526120768185611a01565b9998505050505050505050565b80820180821115611e1757611e17611dea56fea2646970667358221220b6eaca1282818c4c3836de413a737e0b415de593f606a197a9317d5e2780990564736f6c63430008110033",
  "linkReferences": {},
  "deployedLinkReferences": {}
}