{
  "_format": "hh-sol-artifact-1",
  "contractName": "RatherToken",
  "sourceName": "contracts/RatherToken.sol",
  "abi": [
    {
      "inputs": [],
      "stateMutability": "nonpayable",
      "type": "constructor"
    },
    {
      "anonymous": false,
      "inputs": [
        {
          "indexed": true,
          "internalType": "address",
          "name": "owner",
          "type": "address"
        },
        {
          "indexed": true,
          "internalType": "address",
          "name": "spender",
          "type": "address"
        },
        {
          "indexed": false,
          "internalType": "uint256",
          "name": "value",
          "type": "uint256"
        }
      ],
      "name": "Approval",
      "type": "event"
    },
    {
      "anonymous": false,
      "inputs": [
        {
          "indexed": true,
          "internalType": "address",
          "name": "delegator",
          "type": "address"
        },
        {
          "indexed": true,
          "internalType": "address",
          "name": "fromDelegate",
          "type": "address"
        },
        {
          "indexed": true,
          "internalType": "address",
          "name": "toDelegate",
          "type": "address"
        }
      ],
      "name": "DelegateChanged",
      "type": "event"
    },
    {
      "anonymous": false,
      "inputs": [
        {
          "indexed": true,
          "internalType": "address",
          "name": "delegate",
          "type": "address"
        },
        {
          "indexed": false,
          "internalType": "uint256",
          "name": "previousBalance",
          "type": "uint256"
        },
        {
          "indexed": false,
          "internalType": "uint256",
          "name": "newBalance",
          "type": "uint256"
        }
      ],
      "name": "DelegateVotesChanged",
      "type": "event"
    },
    {
      "anonymous": false,
      "inputs": [
        {
          "indexed": true,
          "internalType": "address",
          "name": "from",
          "type": "address"
        },
        {
          "indexed": true,
          "internalType": "address",
          "name": "to",
          "type": "address"
        },
        {
          "indexed": false,
          "internalType": "uint256",
          "name": "value",
          "type": "uint256"
        }
      ],
      "name": "Transfer",
      "type": "event"
    },
    {
      "inputs": [],
      "name": "DOMAIN_SEPARATOR",
      "outputs": [
        {
          "internalType": "bytes32",
          "name": "",
          "type": "bytes32"
        }
      ],
      "stateMutability": "view",
      "type": "function"
    },
    {
      "inputs": [],
      "name": "_totalSupply",
      "outputs": [
        {
          "internalType": "uint256",
          "name": "",
          "type": "uint256"
        }
      ],
      "stateMutability": "view",
      "type": "function"
    },
    {
      "inputs": [
        {
          "internalType": "address",
          "name": "owner",
          "type": "address"
        },
        {
          "internalType": "address",
          "name": "spender",
          "type": "address"
        }
      ],
      "name": "allowance",
      "outputs": [
        {
          "internalType": "uint256",
          "name": "",
          "type": "uint256"
        }
      ],
      "stateMutability": "view",
      "type": "function"
    },
    {
      "inputs": [
        {
          "internalType": "address",
          "name": "spender",
          "type": "address"
        },
        {
          "internalType": "uint256",
          "name": "amount",
          "type": "uint256"
        }
      ],
      "name": "approve",
      "outputs": [
        {
          "internalType": "bool",
          "name": "",
          "type": "bool"
        }
      ],
      "stateMutability": "nonpayable",
      "type": "function"
    },
    {
      "inputs": [
        {
          "internalType": "address",
          "name": "account",
          "type": "address"
        }
      ],
      "name": "balanceOf",
      "outputs": [
        {
          "internalType": "uint256",
          "name": "",
          "type": "uint256"
        }
      ],
      "stateMutability": "view",
      "type": "function"
    },
    {
      "inputs": [
        {
          "internalType": "address",
          "name": "account",
          "type": "address"
        },
        {
          "internalType": "uint32",
          "name": "pos",
          "type": "uint32"
        }
      ],
      "name": "checkpoints",
      "outputs": [
        {
          "components": [
            {
              "internalType": "uint32",
              "name": "fromBlock",
              "type": "uint32"
            },
            {
              "internalType": "uint224",
              "name": "votes",
              "type": "uint224"
            }
          ],
          "internalType": "struct ERC20Votes.Checkpoint",
          "name": "",
          "type": "tuple"
        }
      ],
      "stateMutability": "view",
      "type": "function"
    },
    {
      "inputs": [],
      "name": "decimals",
      "outputs": [
        {
          "internalType": "uint8",
          "name": "",
          "type": "uint8"
        }
      ],
      "stateMutability": "view",
      "type": "function"
    },
    {
      "inputs": [
        {
          "internalType": "address",
          "name": "spender",
          "type": "address"
        },
        {
          "internalType": "uint256",
          "name": "subtractedValue",
          "type": "uint256"
        }
      ],
      "name": "decreaseAllowance",
      "outputs": [
        {
          "internalType": "bool",
          "name": "",
          "type": "bool"
        }
      ],
      "stateMutability": "nonpayable",
      "type": "function"
    },
    {
      "inputs": [
        {
          "internalType": "address",
          "name": "delegatee",
          "type": "address"
        }
      ],
      "name": "delegate",
      "outputs": [],
      "stateMutability": "nonpayable",
      "type": "function"
    },
    {
      "inputs": [
        {
          "internalType": "address",
          "name": "delegatee",
          "type": "address"
        },
        {
          "internalType": "uint256",
          "name": "nonce",
          "type": "uint256"
        },
        {
          "internalType": "uint256",
          "name": "expiry",
          "type": "uint256"
        },
        {
          "internalType": "uint8",
          "name": "v",
          "type": "uint8"
        },
        {
          "internalType": "bytes32",
          "name": "r",
          "type": "bytes32"
        },
        {
          "internalType": "bytes32",
          "name": "s",
          "type": "bytes32"
        }
      ],
      "name": "delegateBySig",
      "outputs": [],
      "stateMutability": "nonpayable",
      "type": "function"
    },
    {
      "inputs": [
        {
          "internalType": "address",
          "name": "account",
          "type": "address"
        }
      ],
      "name": "delegates",
      "outputs": [
        {
          "internalType": "address",
          "name": "",
          "type": "address"
        }
      ],
      "stateMutability": "view",
      "type": "function"
    },
    {
      "inputs": [
        {
          "internalType": "uint256",
          "name": "blockNumber",
          "type": "uint256"
        }
      ],
      "name": "getPastTotalSupply",
      "outputs": [
        {
          "internalType": "uint256",
          "name": "",
          "type": "uint256"
        }
      ],
      "stateMutability": "view",
      "type": "function"
    },
    {
      "inputs": [
        {
          "internalType": "address",
          "name": "account",
          "type": "address"
        },
        {
          "internalType": "uint256",
          "name": "blockNumber",
          "type": "uint256"
        }
      ],
      "name": "getPastVotes",
      "outputs": [
        {
          "internalType": "uint256",
          "name": "",
          "type": "uint256"
        }
      ],
      "stateMutability": "view",
      "type": "function"
    },
    {
      "inputs": [
        {
          "internalType": "address",
          "name": "account",
          "type": "address"
        }
      ],
      "name": "getVotes",
      "outputs": [
        {
          "internalType": "uint256",
          "name": "",
          "type": "uint256"
        }
      ],
      "stateMutability": "view",
      "type": "function"
    },
    {
      "inputs": [
        {
          "internalType": "address",
          "name": "spender",
          "type": "address"
        },
        {
          "internalType": "uint256",
          "name": "addedValue",
          "type": "uint256"
        }
      ],
      "name": "increaseAllowance",
      "outputs": [
        {
          "internalType": "bool",
          "name": "",
          "type": "bool"
        }
      ],
      "stateMutability": "nonpayable",
      "type": "function"
    },
    {
      "inputs": [],
      "name": "name",
      "outputs": [
        {
          "internalType": "string",
          "name": "",
          "type": "string"
        }
      ],
      "stateMutability": "view",
      "type": "function"
    },
    {
      "inputs": [
        {
          "internalType": "address",
          "name": "owner",
          "type": "address"
        }
      ],
      "name": "nonces",
      "outputs": [
        {
          "internalType": "uint256",
          "name": "",
          "type": "uint256"
        }
      ],
      "stateMutability": "view",
      "type": "function"
    },
    {
      "inputs": [
        {
          "internalType": "address",
          "name": "account",
          "type": "address"
        }
      ],
      "name": "numCheckpoints",
      "outputs": [
        {
          "internalType": "uint32",
          "name": "",
          "type": "uint32"
        }
      ],
      "stateMutability": "view",
      "type": "function"
    },
    {
      "inputs": [
        {
          "internalType": "address",
          "name": "owner",
          "type": "address"
        },
        {
          "internalType": "address",
          "name": "spender",
          "type": "address"
        },
        {
          "internalType": "uint256",
          "name": "value",
          "type": "uint256"
        },
        {
          "internalType": "uint256",
          "name": "deadline",
          "type": "uint256"
        },
        {
          "internalType": "uint8",
          "name": "v",
          "type": "uint8"
        },
        {
          "internalType": "bytes32",
          "name": "r",
          "type": "bytes32"
        },
        {
          "internalType": "bytes32",
          "name": "s",
          "type": "bytes32"
        }
      ],
      "name": "permit",
      "outputs": [],
      "stateMutability": "nonpayable",
      "type": "function"
    },
    {
      "inputs": [],
      "name": "symbol",
      "outputs": [
        {
          "internalType": "string",
          "name": "",
          "type": "string"
        }
      ],
      "stateMutability": "view",
      "type": "function"
    },
    {
      "inputs": [],
      "name": "totalSupply",
      "outputs": [
        {
          "internalType": "uint256",
          "name": "",
          "type": "uint256"
        }
      ],
      "stateMutability": "view",
      "type": "function"
    },
    {
      "inputs": [
        {
          "internalType": "address",
          "name": "to",
          "type": "address"
        },
        {
          "internalType": "uint256",
          "name": "amount",
          "type": "uint256"
        }
      ],
      "name": "transfer",
      "outputs": [
        {
          "internalType": "bool",
          "name": "",
          "type": "bool"
        }
      ],
      "stateMutability": "nonpayable",
      "type": "function"
    },
    {
      "inputs": [
        {
          "internalType": "address",
          "name": "from",
          "type": "address"
        },
        {
          "internalType": "address",
          "name": "to",
          "type": "address"
        },
        {
          "internalType": "uint256",
          "name": "amount",
          "type": "uint256"
        }
      ],
      "name": "transferFrom",
      "outputs": [
        {
          "internalType": "bool",
          "name": "",
          "type": "bool"
        }
      ],
      "stateMutability": "nonpayable",
      "type": "function"
    }
  ],
  "bytecode": "0x6101406040526a084595161401484a000000600a553480156200002157600080fd5b506040518060400160405280600b81526020016a2930ba3432b92a37b5b2b760a91b81525080604051806040016040528060018152602001603160f81b8152506040518060400160405280600b81526020016a2930ba3432b92a37b5b2b760a91b81525060405180604001604052806006815260200165292a27a5a2a760d11b8152508160039081620000b59190620007cf565b506004620000c48282620007cf565b5050825160209384012082519284019290922060e08390526101008190524660a0818152604080517f8b73c3c69bb8fe3d512ecc4cf759cc79239f7b179b0ffacaa9a75d522b39400f818901819052818301979097526060810194909452608080850193909352308483018190528151808603909301835260c094850190915281519190960120905292909252610120525050600a54620001679033906200016d565b620008dd565b6200018482826200018860201b62000a161760201c565b5050565b6200019f82826200023f60201b62000aa61760201c565b6001600160e01b03620001b36200030c8216565b1115620002205760405162461bcd60e51b815260206004820152603060248201527f4552433230566f7465733a20746f74616c20737570706c79207269736b73206f60448201526f766572666c6f77696e6720766f74657360801b60648201526084015b60405180910390fd5b62000239600962000b716200031260201b178362000329565b50505050565b6001600160a01b038216620002975760405162461bcd60e51b815260206004820152601f60248201527f45524332303a206d696e7420746f20746865207a65726f206164647265737300604482015260640162000217565b8060026000828254620002ab9190620008b1565b90915550506001600160a01b038216600081815260208181526040808320805486019055518481527fddf252ad1be2c89b69c2b068fc378daa952ba7f163c4a11628f55a4df523b3ef910160405180910390a36200018460008383620004c0565b60025490565b6000620003208284620008b1565b90505b92915050565b82546000908190818115620003895762000358876200034a600185620008c7565b600091825260209091200190565b60408051808201909152905463ffffffff8116825264010000000090046001600160e01b031660208201526200039e565b60408051808201909152600080825260208201525b905080602001516001600160e01b03169350620003bc84868860201c565b9250600082118015620003d55750805163ffffffff1643145b156200042c57620003f183620004d860201b62000b7d1760201c565b62000403886200034a600186620008c7565b80546001600160e01b03929092166401000000000263ffffffff909216919091179055620004b1565b8660405180604001604052806200044e436200054760201b62000bea1760201c565b63ffffffff1681526020016200046f86620004d860201b62000b7d1760201c565b6001600160e01b0390811690915282546001810184556000938452602093849020835194909301519091166401000000000263ffffffff909316929092179101555b5050935093915050565b505050565b620004bb838383620005ae60201b62000c4f1760201c565b60006001600160e01b03821115620005435760405162461bcd60e51b815260206004820152602760248201527f53616665436173743a2076616c756520646f65736e27742066697420696e20326044820152663234206269747360c81b606482015260840162000217565b5090565b600063ffffffff821115620005435760405162461bcd60e51b815260206004820152602660248201527f53616665436173743a2076616c756520646f65736e27742066697420696e203360448201526532206269747360d01b606482015260840162000217565b620005c6838383620004bb60201b62000c811760201c565b6001600160a01b03838116600090815260076020526040808220548584168352912054620004bb92918216911683818314801590620006055750600081115b15620004bb576001600160a01b0383161562000692576001600160a01b0383166000908152600860209081526040822082916200064f91906200071d901b62000c86178562000329565b91509150846001600160a01b0316600080516020620025e1833981519152838360405162000687929190918252602082015260400190565b60405180910390a250505b6001600160a01b03821615620004bb576001600160a01b038216600090815260086020908152604082208291620006d6919062000312901b62000b71178562000329565b91509150836001600160a01b0316600080516020620025e183398151915283836040516200070e929190918252602082015260400190565b60405180910390a25050505050565b6000620003208284620008c7565b634e487b7160e01b600052604160045260246000fd5b600181811c908216806200075657607f821691505b6020821081036200077757634e487b7160e01b600052602260045260246000fd5b50919050565b601f821115620004bb57600081815260208120601f850160051c81016020861015620007a65750805b601f850160051c820191505b81811015620007c757828155600101620007b2565b505050505050565b81516001600160401b03811115620007eb57620007eb6200072b565b6200080381620007fc845462000741565b846200077d565b602080601f8311600181146200083b5760008415620008225750858301515b600019600386901b1c1916600185901b178555620007c7565b600085815260208120601f198616915b828110156200086c578886015182559484019460019091019084016200084b565b50858210156200088b5787850151600019600388901b60f8161c191681555b5050505050600190811b01905550565b634e487b7160e01b600052601160045260246000fd5b808201808211156200032357620003236200089b565b818103818111156200032357620003236200089b565b60805160a05160c05160e0516101005161012051611cb46200092d600039600061105e015260006110ad0152600061108801526000610fe10152600061100b015260006110350152611cb46000f3fe608060405234801561001057600080fd5b506004361061014d5760003560e01c80636fcfff45116100c3578063a457c2d71161007c578063a457c2d7146102e9578063a9059cbb146102fc578063c3cda5201461030f578063d505accf14610322578063dd62ed3e14610335578063f1127ed81461034857600080fd5b80636fcfff451461025757806370a082311461027f5780637ecebe00146102a85780638e539e8c146102bb57806395d89b41146102ce5780639ab24eb0146102d657600080fd5b80633644e515116101155780633644e515146101c757806339509351146101cf5780633a46b1a8146101e25780633eaaf86b146101f5578063587cde1e146101fe5780635c19a95c1461024257600080fd5b806306fdde0314610152578063095ea7b31461017057806318160ddd1461019357806323b872dd146101a5578063313ce567146101b8575b600080fd5b61015a610385565b6040516101679190611960565b60405180910390f35b61018361017e3660046119ca565b610417565b6040519015158152602001610167565b6002545b604051908152602001610167565b6101836101b33660046119f4565b610431565b60405160128152602001610167565b610197610455565b6101836101dd3660046119ca565b610464565b6101976101f03660046119ca565b610486565b610197600a5481565b61022a61020c366004611a30565b6001600160a01b039081166000908152600760205260409020541690565b6040516001600160a01b039091168152602001610167565b610255610250366004611a30565b610505565b005b61026a610265366004611a30565b610512565b60405163ffffffff9091168152602001610167565b61019761028d366004611a30565b6001600160a01b031660009081526020819052604090205490565b6101976102b6366004611a30565b610534565b6101976102c9366004611a4b565b610552565b61015a6105ae565b6101976102e4366004611a30565b6105bd565b6101836102f73660046119ca565b610644565b61018361030a3660046119ca565b6106bf565b61025561031d366004611a75565b6106cd565b610255610330366004611acd565b610803565b610197610343366004611b37565b610967565b61035b610356366004611b6a565b610992565b60408051825163ffffffff1681526020928301516001600160e01b03169281019290925201610167565b60606003805461039490611baa565b80601f01602080910402602001604051908101604052809291908181526020018280546103c090611baa565b801561040d5780601f106103e25761010080835404028352916020019161040d565b820191906000526020600020905b8154815290600101906020018083116103f057829003601f168201915b5050505050905090565b600033610425818585610c92565b60019150505b92915050565b60003361043f858285610db6565b61044a858585610e2a565b506001949350505050565b600061045f610fd4565b905090565b6000336104258185856104778383610967565b6104819190611bf4565b610c92565b60004382106104dc5760405162461bcd60e51b815260206004820152601f60248201527f4552433230566f7465733a20626c6f636b206e6f7420796574206d696e65640060448201526064015b60405180910390fd5b6001600160a01b03831660009081526008602052604090206104fe90836110fb565b9392505050565b61050f33826111f2565b50565b6001600160a01b03811660009081526008602052604081205461042b90610bea565b6001600160a01b03811660009081526005602052604081205461042b565b60004382106105a35760405162461bcd60e51b815260206004820152601f60248201527f4552433230566f7465733a20626c6f636b206e6f7420796574206d696e65640060448201526064016104d3565b61042b6009836110fb565b60606004805461039490611baa565b6001600160a01b0381166000908152600860205260408120548015610631576001600160a01b03831660009081526008602052604090206105ff600183611c07565b8154811061060f5761060f611c1a565b60009182526020909120015464010000000090046001600160e01b0316610634565b60005b6001600160e01b03169392505050565b600033816106528286610967565b9050838110156106b25760405162461bcd60e51b815260206004820152602560248201527f45524332303a2064656372656173656420616c6c6f77616e63652062656c6f77604482015264207a65726f60d81b60648201526084016104d3565b61044a8286868403610c92565b600033610425818585610e2a565b8342111561071d5760405162461bcd60e51b815260206004820152601d60248201527f4552433230566f7465733a207369676e6174757265206578706972656400000060448201526064016104d3565b604080517fe48329057bfd03d55e49b547132e39cffd9c1820ad7b9d4c5307691425d15adf60208201526001600160a01b0388169181019190915260608101869052608081018590526000906107979061078f9060a0016040516020818303038152906040528051906020012061126b565b8585856112b9565b90506107a2816112e1565b86146107f05760405162461bcd60e51b815260206004820152601960248201527f4552433230566f7465733a20696e76616c6964206e6f6e63650000000000000060448201526064016104d3565b6107fa81886111f2565b50505050505050565b834211156108535760405162461bcd60e51b815260206004820152601d60248201527f45524332305065726d69743a206578706972656420646561646c696e6500000060448201526064016104d3565b60007f6e71edae12b1b97f4d1f60370fef10105fa2faae0126114a169c64845d6126c98888886108828c6112e1565b6040805160208101969096526001600160a01b0394851690860152929091166060840152608083015260a082015260c0810186905260e00160405160208183030381529060405280519060200120905060006108dd8261126b565b905060006108ed828787876112b9565b9050896001600160a01b0316816001600160a01b0316146109505760405162461bcd60e51b815260206004820152601e60248201527f45524332305065726d69743a20696e76616c6964207369676e6174757265000060448201526064016104d3565b61095b8a8a8a610c92565b50505050505050505050565b6001600160a01b03918216600090815260016020908152604080832093909416825291909152205490565b60408051808201909152600080825260208201526001600160a01b0383166000908152600860205260409020805463ffffffff84169081106109d6576109d6611c1a565b60009182526020918290206040805180820190915291015463ffffffff8116825264010000000090046001600160e01b0316918101919091529392505050565b610a208282610aa6565b6002546001600160e01b031015610a925760405162461bcd60e51b815260206004820152603060248201527f4552433230566f7465733a20746f74616c20737570706c79207269736b73206f60448201526f766572666c6f77696e6720766f74657360801b60648201526084016104d3565b610aa06009610b7183611309565b50505050565b6001600160a01b038216610afc5760405162461bcd60e51b815260206004820152601f60248201527f45524332303a206d696e7420746f20746865207a65726f20616464726573730060448201526064016104d3565b8060026000828254610b0e9190611bf4565b90915550506001600160a01b038216600081815260208181526040808320805486019055518481527fddf252ad1be2c89b69c2b068fc378daa952ba7f163c4a11628f55a4df523b3ef910160405180910390a3610b6d6000838361145d565b5050565b60006104fe8284611bf4565b60006001600160e01b03821115610be65760405162461bcd60e51b815260206004820152602760248201527f53616665436173743a2076616c756520646f65736e27742066697420696e20326044820152663234206269747360c81b60648201526084016104d3565b5090565b600063ffffffff821115610be65760405162461bcd60e51b815260206004820152602660248201527f53616665436173743a2076616c756520646f65736e27742066697420696e203360448201526532206269747360d01b60648201526084016104d3565b6001600160a01b03838116600090815260076020526040808220548584168352912054610c8192918216911683611468565b505050565b60006104fe8284611c07565b6001600160a01b038316610cf45760405162461bcd60e51b8152602060048201526024808201527f45524332303a20617070726f76652066726f6d20746865207a65726f206164646044820152637265737360e01b60648201526084016104d3565b6001600160a01b038216610d555760405162461bcd60e51b815260206004820152602260248201527f45524332303a20617070726f766520746f20746865207a65726f206164647265604482015261737360f01b60648201526084016104d3565b6001600160a01b0383811660008181526001602090815260408083209487168084529482529182902085905590518481527f8c5be1e5ebec7d5bd14f71427d1e84f3dd0314c0f7b2291e5b200ac8c7c3b925910160405180910390a3505050565b6000610dc28484610967565b90506000198114610aa05781811015610e1d5760405162461bcd60e51b815260206004820152601d60248201527f45524332303a20696e73756666696369656e7420616c6c6f77616e636500000060448201526064016104d3565b610aa08484848403610c92565b6001600160a01b038316610e8e5760405162461bcd60e51b815260206004820152602560248201527f45524332303a207472616e736665722066726f6d20746865207a65726f206164604482015264647265737360d81b60648201526084016104d3565b6001600160a01b038216610ef05760405162461bcd60e51b815260206004820152602360248201527f45524332303a207472616e7366657220746f20746865207a65726f206164647260448201526265737360e81b60648201526084016104d3565b6001600160a01b03831660009081526020819052604090205481811015610f685760405162461bcd60e51b815260206004820152602660248201527f45524332303a207472616e7366657220616d6f756e7420657863656564732062604482015265616c616e636560d01b60648201526084016104d3565b6001600160a01b03848116600081815260208181526040808320878703905593871680835291849020805487019055925185815290927fddf252ad1be2c89b69c2b068fc378daa952ba7f163c4a11628f55a4df523b3ef910160405180910390a3610aa084848461145d565b6000306001600160a01b037f00000000000000000000000000000000000000000000000000000000000000001614801561102d57507f000000000000000000000000000000000000000000000000000000000000000046145b1561105757507f000000000000000000000000000000000000000000000000000000000000000090565b50604080517f00000000000000000000000000000000000000000000000000000000000000006020808301919091527f0000000000000000000000000000000000000000000000000000000000000000828401527f000000000000000000000000000000000000000000000000000000000000000060608301524660808301523060a0808401919091528351808403909101815260c0909201909252805191012090565b815460009081816005811115611155576000611116846115a5565b6111209085611c07565b600088815260209020909150869082015463ffffffff16111561114557809150611153565b611150816001611bf4565b92505b505b808210156111a2576000611169838361168d565b600088815260209020909150869082015463ffffffff16111561118e5780915061119c565b611199816001611bf4565b92505b50611155565b80156111dc576111c5866111b7600184611c07565b600091825260209091200190565b5464010000000090046001600160e01b03166111df565b60005b6001600160e01b03169695505050505050565b6001600160a01b038281166000818152600760208181526040808420805485845282862054949093528787166001600160a01b03198416811790915590519190951694919391928592917f3134e8a2e6d97e929a7e54011ea5485d7d196dd5f0ba4d4ef95803e8e3fc257f9190a4610aa0828483611468565b600061042b611278610fd4565b8360405161190160f01b6020820152602281018390526042810182905260009060620160405160208183030381529060405280519060200120905092915050565b60008060006112ca878787876116a8565b915091506112d78161176c565b5095945050505050565b6001600160a01b03811660009081526005602052604090208054600181018255905b50919050565b8254600090819081811561135657611326876111b7600185611c07565b60408051808201909152905463ffffffff8116825264010000000090046001600160e01b0316602082015261136b565b60408051808201909152600080825260208201525b905080602001516001600160e01b0316935061138b84868863ffffffff16565b92506000821180156113a35750805163ffffffff1643145b156113e8576113b183610b7d565b6113c0886111b7600186611c07565b80546001600160e01b03929092166401000000000263ffffffff909216919091179055611453565b8660405180604001604052806113fd43610bea565b63ffffffff16815260200161141186610b7d565b6001600160e01b0390811690915282546001810184556000938452602093849020835194909301519091166401000000000263ffffffff909316929092179101555b5050935093915050565b610c81838383610c4f565b816001600160a01b0316836001600160a01b03161415801561148a5750600081115b15610c81576001600160a01b03831615611518576001600160a01b038316600090815260086020526040812081906114c590610c8685611309565b91509150846001600160a01b03167fdec2bacdd2f05b59de34da9b523dff8be42e5e38e818c82fdb0bae774387a724838360405161150d929190918252602082015260400190565b60405180910390a250505b6001600160a01b03821615610c81576001600160a01b0382166000908152600860205260408120819061154e90610b7185611309565b91509150836001600160a01b03167fdec2bacdd2f05b59de34da9b523dff8be42e5e38e818c82fdb0bae774387a7248383604051611596929190918252602082015260400190565b60405180910390a25050505050565b6000816000036115b757506000919050565b600060016115c4846118b6565b901c6001901b905060018184816115dd576115dd611c30565b048201901c905060018184816115f5576115f5611c30565b048201901c9050600181848161160d5761160d611c30565b048201901c9050600181848161162557611625611c30565b048201901c9050600181848161163d5761163d611c30565b048201901c9050600181848161165557611655611c30565b048201901c9050600181848161166d5761166d611c30565b048201901c90506104fe8182858161168757611687611c30565b0461194a565b600061169c6002848418611c46565b6104fe90848416611bf4565b6000807f7fffffffffffffffffffffffffffffff5d576e7357a4501ddfe92f46681b20a08311156116df5750600090506003611763565b6040805160008082526020820180845289905260ff881692820192909252606081018690526080810185905260019060a0016020604051602081039080840390855afa158015611733573d6000803e3d6000fd5b5050604051601f1901519150506001600160a01b03811661175c57600060019250925050611763565b9150600090505b94509492505050565b600081600481111561178057611780611c68565b036117885750565b600181600481111561179c5761179c611c68565b036117e95760405162461bcd60e51b815260206004820152601860248201527f45434453413a20696e76616c6964207369676e6174757265000000000000000060448201526064016104d3565b60028160048111156117fd576117fd611c68565b0361184a5760405162461bcd60e51b815260206004820152601f60248201527f45434453413a20696e76616c6964207369676e6174757265206c656e6774680060448201526064016104d3565b600381600481111561185e5761185e611c68565b0361050f5760405162461bcd60e51b815260206004820152602260248201527f45434453413a20696e76616c6964207369676e6174757265202773272076616c604482015261756560f01b60648201526084016104d3565b600080608083901c156118cb57608092831c92015b604083901c156118dd57604092831c92015b602083901c156118ef57602092831c92015b601083901c1561190157601092831c92015b600883901c1561191357600892831c92015b600483901c1561192557600492831c92015b600283901c1561193757600292831c92015b600183901c1561042b5760010192915050565b600081831061195957816104fe565b5090919050565b600060208083528351808285015260005b8181101561198d57858101830151858201604001528201611971565b506000604082860101526040601f19601f8301168501019250505092915050565b80356001600160a01b03811681146119c557600080fd5b919050565b600080604083850312156119dd57600080fd5b6119e6836119ae565b946020939093013593505050565b600080600060608486031215611a0957600080fd5b611a12846119ae565b9250611a20602085016119ae565b9150604084013590509250925092565b600060208284031215611a4257600080fd5b6104fe826119ae565b600060208284031215611a5d57600080fd5b5035919050565b803560ff811681146119c557600080fd5b60008060008060008060c08789031215611a8e57600080fd5b611a97876119ae565b95506020870135945060408701359350611ab360608801611a64565b92506080870135915060a087013590509295509295509295565b600080600080600080600060e0888a031215611ae857600080fd5b611af1886119ae565b9650611aff602089016119ae565b95506040880135945060608801359350611b1b60808901611a64565b925060a0880135915060c0880135905092959891949750929550565b60008060408385031215611b4a57600080fd5b611b53836119ae565b9150611b61602084016119ae565b90509250929050565b60008060408385031215611b7d57600080fd5b611b86836119ae565b9150602083013563ffffffff81168114611b9f57600080fd5b809150509250929050565b600181811c90821680611bbe57607f821691505b60208210810361130357634e487b7160e01b600052602260045260246000fd5b634e487b7160e01b600052601160045260246000fd5b8082018082111561042b5761042b611bde565b8181038181111561042b5761042b611bde565b634e487b7160e01b600052603260045260246000fd5b634e487b7160e01b600052601260045260246000fd5b600082611c6357634e487b7160e01b600052601260045260246000fd5b500490565b634e487b7160e01b600052602160045260246000fdfea2646970667358221220c6dc3387ee0fff738e35c7d6e359e8da2c01929b1320c202152e0bd8e8490adb64736f6c63430008110033dec2bacdd2f05b59de34da9b523dff8be42e5e38e818c82fdb0bae774387a724",
  "linkReferences": {},
  "deployedLinkReferences": {}
}