{
  "_format": "hh-sol-artifact-1",
  "contractName": "Toggler",
  "sourceName": "contracts/Toggler.sol",
  "abi": [
    {
      "anonymous": false,
      "inputs": [
        {
          "indexed": true,
          "internalType": "address",
          "name": "previousOwner",
          "type": "address"
        },
        {
          "indexed": true,
          "internalType": "address",
          "name": "newOwner",
          "type": "address"
        }
      ],
      "name": "OwnershipTransferred",
      "type": "event"
    },
    {
      "inputs": [],
      "name": "isOn",
      "outputs": [
        {
          "internalType": "bool",
          "name": "",
          "type": "bool"
        }
      ],
      "stateMutability": "view",
      "type": "function"
    },
    {
      "inputs": [],
      "name": "owner",
      "outputs": [
        {
          "internalType": "address",
          "name": "",
          "type": "address"
        }
      ],
      "stateMutability": "view",
      "type": "function"
    },
    {
      "inputs": [],
      "name": "renounceOwnership",
      "outputs": [],
      "stateMutability": "nonpayable",
      "type": "function"
    },
    {
      "inputs": [],
      "name": "toggle",
      "outputs": [],
      "stateMutability": "nonpayable",
      "type": "function"
    },
    {
      "inputs": [
        {
          "internalType": "address",
          "name": "newOwner",
          "type": "address"
        }
      ],
      "name": "transferOwnership",
      "outputs": [],
      "stateMutability": "nonpayable",
      "type": "function"
    }
  ],
  "bytecode": "0x608060405234801561001057600080fd5b5061001a3361001f565b61006f565b600080546001600160a01b038381166001600160a01b0319831681178455604051919092169283917f8be0079c531659141344cd1fd0a4f28419497f9722a3daafe3b4186f6b6457e09190a35050565b6102908061007e6000396000f3fe608060405234801561001057600080fd5b50600436106100575760003560e01c8063175bbecf1461005c57806340a3d24614610085578063715018a61461008f5780638da5cb5b14610097578063f2fde38b146100b2575b600080fd5b60005461007090600160a01b900460ff1681565b60405190151581526020015b60405180910390f35b61008d6100c5565b005b61008d6100ee565b6000546040516001600160a01b03909116815260200161007c565b61008d6100c036600461022a565b610102565b6100cd610180565b6000805460ff60a01b198116600160a01b9182900460ff1615909102179055565b6100f6610180565b61010060006101da565b565b61010a610180565b6001600160a01b0381166101745760405162461bcd60e51b815260206004820152602660248201527f4f776e61626c653a206e6577206f776e657220697320746865207a65726f206160448201526564647265737360d01b60648201526084015b60405180910390fd5b61017d816101da565b50565b6000546001600160a01b031633146101005760405162461bcd60e51b815260206004820181905260248201527f4f776e61626c653a2063616c6c6572206973206e6f7420746865206f776e6572604482015260640161016b565b600080546001600160a01b038381166001600160a01b0319831681178455604051919092169283917f8be0079c531659141344cd1fd0a4f28419497f9722a3daafe3b4186f6b6457e09190a35050565b60006020828403121561023c57600080fd5b81356001600160a01b038116811461025357600080fd5b939250505056fea264697066735822122088340d3ce59ded385dc41e5a5899b58864b5ed33f07e07dfd4513ed655c3176464736f6c63430008110033",
  "linkReferences": {},
  "deployedLinkReferences": {}
}